{
  "_format": "hh-sol-artifact-1",
  "contractName": "PromptPayrollFactory",
  "sourceName": "contracts/PromptPayrollFactory.sol",
  "abi": [
    {
      "inputs": [
        {
          "internalType": "string",
          "name": "_companyName",
          "type": "string"
        }
      ],
      "name": "createNewContract",
      "outputs": [],
      "stateMutability": "nonpayable",
      "type": "function"
    },
    {
      "inputs": [
        {
          "internalType": "uint256",
          "name": "",
          "type": "uint256"
        }
      ],
      "name": "deployedContracts",
      "outputs": [
        {
          "internalType": "address",
          "name": "",
          "type": "address"
        }
      ],
      "stateMutability": "view",
      "type": "function"
    },
    {
      "inputs": [],
      "name": "getDeployedContracts",
      "outputs": [
        {
          "internalType": "address[]",
          "name": "_deployedContracts",
          "type": "address[]"
        }
      ],
      "stateMutability": "view",
      "type": "function"
    }
  ],
  "bytecode": "0x608060405234801561001057600080fd5b50614854806100206000396000f3fe60806040523480156200001157600080fd5b5060043610620000465760003560e01c8063779d7b6d146200004b5780639ad1ee10146200006b578063aa9a068f14620000a1575b600080fd5b620000696004803603810190620000639190620002c2565b620000c3565b005b62000089600480360381019062000083919062000352565b6200016c565b604051620000989190620003c9565b60405180910390f35b620000ab620001ac565b604051620000ba9190620004b4565b60405180910390f35b6000828233604051620000d6906200023c565b620000e4939291906200053c565b604051809103906000f08015801562000101573d6000803e3d6000fd5b5090506000819080600181540180825580915050600190039060005260206000200160009091909190916101000a81548173ffffffffffffffffffffffffffffffffffffffff021916908373ffffffffffffffffffffffffffffffffffffffff160217905550505050565b600081815481106200017d57600080fd5b906000526020600020016000915054906101000a900473ffffffffffffffffffffffffffffffffffffffff1681565b606060008054806020026020016040519081016040528092919081815260200182805480156200023257602002820191906000526020600020905b8160009054906101000a900473ffffffffffffffffffffffffffffffffffffffff1673ffffffffffffffffffffffffffffffffffffffff1681526020019060010190808311620001e7575b5050505050905090565b6142ac806200057383390190565b600080fd5b600080fd5b600080fd5b600080fd5b600080fd5b60008083601f8401126200027c576200027b62000254565b5b8235905067ffffffffffffffff8111156200029c576200029b62000259565b5b602083019150836001820283011115620002bb57620002ba6200025e565b5b9250929050565b60008060208385031215620002dc57620002db6200024a565b5b600083013567ffffffffffffffff811115620002fd57620002fc6200024f565b5b6200030b8582860162000263565b92509250509250929050565b6000819050919050565b6200032c8162000317565b81146200033857600080fd5b50565b6000813590506200034c8162000321565b92915050565b6000602082840312156200036b576200036a6200024a565b5b60006200037b848285016200033b565b91505092915050565b600073ffffffffffffffffffffffffffffffffffffffff82169050919050565b6000620003b18262000384565b9050919050565b620003c381620003a4565b82525050565b6000602082019050620003e06000830184620003b8565b92915050565b600081519050919050565b600082825260208201905092915050565b6000819050602082019050919050565b6200041d81620003a4565b82525050565b600062000431838362000412565b60208301905092915050565b6000602082019050919050565b60006200045782620003e6565b620004638185620003f1565b9350620004708362000402565b8060005b83811015620004a75781516200048b888262000423565b975062000498836200043d565b92505060018101905062000474565b5085935050505092915050565b60006020820190508181036000830152620004d081846200044a565b905092915050565b600082825260208201905092915050565b82818337600083830152505050565b6000601f19601f8301169050919050565b6000620005178385620004d8565b935062000526838584620004e9565b6200053183620004f8565b840190509392505050565b600060408201905081810360008301526200055981858762000509565b90506200056a6020830184620003b8565b94935050505056fe60806040523480156200001157600080fd5b50604051620042ac380380620042ac8339818101604052810190620000379190620004f2565b620000576200004b620000de60201b60201c565b620000e660201b60201c565b8160019081620000689190620007a3565b506200007a81620001aa60201b60201c565b8073ffffffffffffffffffffffffffffffffffffffff166001604051620000a2919062000924565b60405180910390207f5c346c912aa4cc351513268badc5367dddb5f25eab5efa986f3f722204a36caa60405160405180910390a3505062000a58565b600033905090565b60008060009054906101000a900473ffffffffffffffffffffffffffffffffffffffff169050816000806101000a81548173ffffffffffffffffffffffffffffffffffffffff021916908373ffffffffffffffffffffffffffffffffffffffff1602179055508173ffffffffffffffffffffffffffffffffffffffff168173ffffffffffffffffffffffffffffffffffffffff167f8be0079c531659141344cd1fd0a4f28419497f9722a3daafe3b4186f6b6457e060405160405180910390a35050565b620001ba6200024060201b60201c565b600073ffffffffffffffffffffffffffffffffffffffff168173ffffffffffffffffffffffffffffffffffffffff16036200022c576040517f08c379a00000000000000000000000000000000000000000000000000000000081526004016200022390620009c4565b60405180910390fd5b6200023d81620000e660201b60201c565b50565b62000250620000de60201b60201c565b73ffffffffffffffffffffffffffffffffffffffff1662000276620002d160201b60201c565b73ffffffffffffffffffffffffffffffffffffffff1614620002cf576040517f08c379a0000000000000000000000000000000000000000000000000000000008152600401620002c69062000a36565b60405180910390fd5b565b60008060009054906101000a900473ffffffffffffffffffffffffffffffffffffffff16905090565b6000604051905090565b600080fd5b600080fd5b600080fd5b600080fd5b6000601f19601f8301169050919050565b7f4e487b7100000000000000000000000000000000000000000000000000000000600052604160045260246000fd5b620003638262000318565b810181811067ffffffffffffffff8211171562000385576200038462000329565b5b80604052505050565b60006200039a620002fa565b9050620003a8828262000358565b919050565b600067ffffffffffffffff821115620003cb57620003ca62000329565b5b620003d68262000318565b9050602081019050919050565b60005b8381101562000403578082015181840152602081019050620003e6565b60008484015250505050565b6000620004266200042084620003ad565b6200038e565b90508281526020810184848401111562000445576200044462000313565b5b62000452848285620003e3565b509392505050565b600082601f8301126200047257620004716200030e565b5b8151620004848482602086016200040f565b91505092915050565b600073ffffffffffffffffffffffffffffffffffffffff82169050919050565b6000620004ba826200048d565b9050919050565b620004cc81620004ad565b8114620004d857600080fd5b50565b600081519050620004ec81620004c1565b92915050565b600080604083850312156200050c576200050b62000304565b5b600083015167ffffffffffffffff8111156200052d576200052c62000309565b5b6200053b858286016200045a565b92505060206200054e85828601620004db565b9150509250929050565b600081519050919050565b7f4e487b7100000000000000000000000000000000000000000000000000000000600052602260045260246000fd5b60006002820490506001821680620005ab57607f821691505b602082108103620005c157620005c062000563565b5b50919050565b60008190508160005260206000209050919050565b60006020601f8301049050919050565b600082821b905092915050565b6000600883026200062b7fffffffffffffffffffffffffffffffffffffffffffffffffffffffffffffffff82620005ec565b620006378683620005ec565b95508019841693508086168417925050509392505050565b6000819050919050565b6000819050919050565b6000620006846200067e62000678846200064f565b62000659565b6200064f565b9050919050565b6000819050919050565b620006a08362000663565b620006b8620006af826200068b565b848454620005f9565b825550505050565b600090565b620006cf620006c0565b620006dc81848462000695565b505050565b5b818110156200070457620006f8600082620006c5565b600181019050620006e2565b5050565b601f82111562000753576200071d81620005c7565b6200072884620005dc565b8101602085101562000738578190505b620007506200074785620005dc565b830182620006e1565b50505b505050565b600082821c905092915050565b6000620007786000198460080262000758565b1980831691505092915050565b600062000793838362000765565b9150826002028217905092915050565b620007ae8262000558565b67ffffffffffffffff811115620007ca57620007c962000329565b5b620007d6825462000592565b620007e382828562000708565b600060209050601f8311600181146200081b576000841562000806578287015190505b62000812858262000785565b86555062000882565b601f1984166200082b86620005c7565b60005b8281101562000855578489015182556001820191506020850194506020810190506200082e565b8683101562000875578489015162000871601f89168262000765565b8355505b6001600288020188555050505b505050505050565b600081905092915050565b60008154620008a48162000592565b620008b081866200088a565b94506001821660008114620008ce5760018114620008e4576200091b565b60ff19831686528115158202860193506200091b565b620008ef85620005c7565b60005b838110156200091357815481890152600182019150602081019050620008f2565b838801955050505b50505092915050565b600062000932828462000895565b915081905092915050565b600082825260208201905092915050565b7f4f776e61626c653a206e6577206f776e657220697320746865207a65726f206160008201527f6464726573730000000000000000000000000000000000000000000000000000602082015250565b6000620009ac6026836200093d565b9150620009b9826200094e565b604082019050919050565b60006020820190508181036000830152620009df816200099d565b9050919050565b7f4f776e61626c653a2063616c6c6572206973206e6f7420746865206f776e6572600082015250565b600062000a1e6020836200093d565b915062000a2b82620009e6565b602082019050919050565b6000602082019050818103600083015262000a518162000a0f565b9050919050565b6138448062000a686000396000f3fe6080604052600436106101355760003560e01c8063aa6e5b93116100ab578063e7fd9a131161006f578063e7fd9a13146103f7578063ea66543f14610420578063f2fde38b1461045d578063f5ec2eed14610486578063f91575f0146104b1578063fe64d6ff146104da57610135565b8063aa6e5b931461031d578063d067894714610346578063d108fab314610387578063d9af97e4146103b0578063dfe8fa00146103cc57610135565b806365aade1a116100fd57806365aade1a1461021f578063715018a61461025c5780637521720b146102735780638da5cb5b146102b05780639005b2c4146102db5780639cee7e8d146102f257610135565b8063068ffb311461013a57806308cad1bf14610151578063172b18931461017c5780635c214bc1146101b95780635e4af8f6146101f6575b600080fd5b34801561014657600080fd5b5061014f610503565b005b34801561015d57600080fd5b5061016661099e565b6040516101739190612766565b60405180910390f35b34801561018857600080fd5b506101a3600480360381019061019e91906127b7565b6109a4565b6040516101b09190612766565b60405180910390f35b3480156101c557600080fd5b506101e060048036038101906101db9190612842565b610a2e565b6040516101ed9190612766565b60405180910390f35b34801561020257600080fd5b5061021d6004803603810190610218919061286f565b610a7a565b005b34801561022b57600080fd5b5061024660048036038101906102419190612842565b610bc0565b6040516102539190612766565b60405180910390f35b34801561026857600080fd5b50610271610c0c565b005b34801561027f57600080fd5b5061029a600480360381019061029591906127b7565b610c20565b6040516102a791906128d0565b60405180910390f35b3480156102bc57600080fd5b506102c5610c5f565b6040516102d291906128fa565b60405180910390f35b3480156102e757600080fd5b506102f0610c88565b005b3480156102fe57600080fd5b50610307610f80565b6040516103149190612766565b60405180910390f35b34801561032957600080fd5b50610344600480360381019061033f91906127b7565b6110ca565b005b34801561035257600080fd5b5061036d60048036038101906103689190612842565b611641565b60405161037e959493929190612930565b60405180910390f35b34801561039357600080fd5b506103ae60048036038101906103a991906129e8565b611684565b005b6103ca60048036038101906103c591906127b7565b61178b565b005b3480156103d857600080fd5b506103e1611e2a565b6040516103ee9190612766565b60405180910390f35b34801561040357600080fd5b5061041e60048036038101906104199190612a61565b611e30565b005b34801561042c57600080fd5b5061044760048036038101906104429190612842565b611fb0565b6040516104549190612aa1565b60405180910390f35b34801561046957600080fd5b50610484600480360381019061047f9190612842565b6120b3565b005b34801561049257600080fd5b5061049b612136565b6040516104a89190612b4c565b60405180910390f35b3480156104bd57600080fd5b506104d860048036038101906104d391906127b7565b6121c4565b005b3480156104e657600080fd5b5061050160048036038101906104fc9190612b6e565b6122ea565b005b61050b612603565b60005b6003805490508110156107d657600260006003838154811061053357610532612b9b565b5b9060005260206000200160009054906101000a900473ffffffffffffffffffffffffffffffffffffffff1673ffffffffffffffffffffffffffffffffffffffff1673ffffffffffffffffffffffffffffffffffffffff16815260200190815260200160002060010160009054906101000a900460ff16156107c357600060055460026000600385815481106105cb576105ca612b9b565b5b9060005260206000200160009054906101000a900473ffffffffffffffffffffffffffffffffffffffff1673ffffffffffffffffffffffffffffffffffffffff1673ffffffffffffffffffffffffffffffffffffffff16815260200190815260200160002060020154600260006003868154811061064c5761064b612b9b565b5b9060005260206000200160009054906101000a900473ffffffffffffffffffffffffffffffffffffffff1673ffffffffffffffffffffffffffffffffffffffff1673ffffffffffffffffffffffffffffffffffffffff16815260200190815260200160002060040154426106c09190612bf9565b6106ca9190612c2d565b6106d49190612c9e565b90506000600383815481106106ec576106eb612b9b565b5b9060005260206000200160009054906101000a900473ffffffffffffffffffffffffffffffffffffffff1673ffffffffffffffffffffffffffffffffffffffff168260405161073a90612d00565b60006040518083038185875af1925050503d8060008114610777576040519150601f19603f3d011682016040523d82523d6000602084013e61077c565b606091505b50509050806107c0576040517f08c379a00000000000000000000000000000000000000000000000000000000081526004016107b790612d61565b60405180910390fd5b50505b80806107ce90612d81565b91505061050e565b5060003373ffffffffffffffffffffffffffffffffffffffff16476040516107fd90612d00565b60006040518083038185875af1925050503d806000811461083a576040519150601f19603f3d011682016040523d82523d6000602084013e61083f565b606091505b5050905080610883576040517f08c379a000000000000000000000000000000000000000000000000000000000815260040161087a90612e3b565b60405180910390fd5b60006001805461089290612e8a565b80601f01602080910402602001604051908101604052809291908181526020018280546108be90612e8a565b801561090b5780601f106108e05761010080835404028352916020019161090b565b820191906000526020600020905b8154815290600101906020018083116108ee57829003601f168201915b505050505090506040518060400160405280601d81526020017f5468697320636f6d70616e7920686173206265656e20636c6f7365642e000000815250600190816109569190613096565b50428160405161096691906131a4565b60405180910390207fd24ce213f9cfc675a31f6c3fc4d96f6acf5d9fccdac1e3593e8ced1aa98eab2460405160405180910390a35050565b60055481565b600060026000600384815481106109be576109bd612b9b565b5b9060005260206000200160009054906101000a900473ffffffffffffffffffffffffffffffffffffffff1673ffffffffffffffffffffffffffffffffffffffff1673ffffffffffffffffffffffffffffffffffffffff168152602001908152602001600020600301549050919050565b6000600260008373ffffffffffffffffffffffffffffffffffffffff1673ffffffffffffffffffffffffffffffffffffffff168152602001908152602001600020600301549050919050565b610a82612603565b60006002600060038581548110610a9c57610a9b612b9b565b5b9060005260206000200160009054906101000a900473ffffffffffffffffffffffffffffffffffffffff1673ffffffffffffffffffffffffffffffffffffffff1673ffffffffffffffffffffffffffffffffffffffff168152602001908152602001600020600201549050816002600060038681548110610b2057610b1f612b9b565b5b9060005260206000200160009054906101000a900473ffffffffffffffffffffffffffffffffffffffff1673ffffffffffffffffffffffffffffffffffffffff1673ffffffffffffffffffffffffffffffffffffffff168152602001908152602001600020600201819055508181847f0dfae84ad30791773d96a7cfb76d1bfd3733dba2e56aa6c70cfc1cae6a5bb1df60405160405180910390a4505050565b6000600260008373ffffffffffffffffffffffffffffffffffffffff1673ffffffffffffffffffffffffffffffffffffffff168152602001908152602001600020600001549050919050565b610c14612603565b610c1e6000612681565b565b60038181548110610c3057600080fd5b906000526020600020016000915054906101000a900473ffffffffffffffffffffffffffffffffffffffff1681565b60008060009054906101000a900473ffffffffffffffffffffffffffffffffffffffff16905090565b610c9133611fb0565b610cd0576040517f08c379a0000000000000000000000000000000000000000000000000000000008152600401610cc790613207565b60405180910390fd5b6000600554600260003373ffffffffffffffffffffffffffffffffffffffff1673ffffffffffffffffffffffffffffffffffffffff16815260200190815260200160002060020154600260003373ffffffffffffffffffffffffffffffffffffffff1673ffffffffffffffffffffffffffffffffffffffff1681526020019081526020016000206004015442610d669190612bf9565b610d709190612c2d565b610d7a9190612c9e565b905060008111610dbf576040517f08c379a0000000000000000000000000000000000000000000000000000000008152600401610db690613273565b60405180910390fd5b42600260003373ffffffffffffffffffffffffffffffffffffffff1673ffffffffffffffffffffffffffffffffffffffff1681526020019081526020016000206004018190555080600260003373ffffffffffffffffffffffffffffffffffffffff1673ffffffffffffffffffffffffffffffffffffffff1681526020019081526020016000206003016000828254610e589190612bf9565b9250508190555060003373ffffffffffffffffffffffffffffffffffffffff1682604051610e8590612d00565b60006040518083038185875af1925050503d8060008114610ec2576040519150601f19603f3d011682016040523d82523d6000602084013e610ec7565b606091505b5050905080610f0b576040517f08c379a0000000000000000000000000000000000000000000000000000000008152600401610f02906132df565b60405180910390fd5b4282600260003373ffffffffffffffffffffffffffffffffffffffff1673ffffffffffffffffffffffffffffffffffffffff168152602001908152602001600020600001547f39c989d62927c9469257241dfe14b6ac1619a8b52a8c15bd18144afa6c681d1560405160405180910390a45050565b6000805b6003805490508110156110c6576002600060038381548110610fa957610fa8612b9b565b5b9060005260206000200160009054906101000a900473ffffffffffffffffffffffffffffffffffffffff1673ffffffffffffffffffffffffffffffffffffffff1673ffffffffffffffffffffffffffffffffffffffff16815260200190815260200160002060010160009054906101000a900460ff16156110b357600260006003838154811061103c5761103b612b9b565b5b9060005260206000200160009054906101000a900473ffffffffffffffffffffffffffffffffffffffff1673ffffffffffffffffffffffffffffffffffffffff1673ffffffffffffffffffffffffffffffffffffffff16815260200190815260200160002060020154826110b091906132ff565b91505b80806110be90612d81565b915050610f84565b5090565b6110d2612603565b60026000600383815481106110ea576110e9612b9b565b5b9060005260206000200160009054906101000a900473ffffffffffffffffffffffffffffffffffffffff1673ffffffffffffffffffffffffffffffffffffffff1673ffffffffffffffffffffffffffffffffffffffff16815260200190815260200160002060010160009054906101000a900460ff1661119f576040517f08c379a00000000000000000000000000000000000000000000000000000000081526004016111969061337f565b60405180910390fd5b600060026000600384815481106111b9576111b8612b9b565b5b9060005260206000200160009054906101000a900473ffffffffffffffffffffffffffffffffffffffff1673ffffffffffffffffffffffffffffffffffffffff1673ffffffffffffffffffffffffffffffffffffffff16815260200190815260200160002060010160006101000a81548160ff0219169083151502179055506000600554600260006003858154811061125557611254612b9b565b5b9060005260206000200160009054906101000a900473ffffffffffffffffffffffffffffffffffffffff1673ffffffffffffffffffffffffffffffffffffffff1673ffffffffffffffffffffffffffffffffffffffff1681526020019081526020016000206002015460026000600386815481106112d6576112d5612b9b565b5b9060005260206000200160009054906101000a900473ffffffffffffffffffffffffffffffffffffffff1673ffffffffffffffffffffffffffffffffffffffff1673ffffffffffffffffffffffffffffffffffffffff168152602001908152602001600020600401544261134a9190612bf9565b6113549190612c2d565b61135e9190612c9e565b905042600260006003858154811061137957611378612b9b565b5b9060005260206000200160009054906101000a900473ffffffffffffffffffffffffffffffffffffffff1673ffffffffffffffffffffffffffffffffffffffff1673ffffffffffffffffffffffffffffffffffffffff168152602001908152602001600020600401819055506000816002600060038681548110611400576113ff612b9b565b5b9060005260206000200160009054906101000a900473ffffffffffffffffffffffffffffffffffffffff1673ffffffffffffffffffffffffffffffffffffffff1673ffffffffffffffffffffffffffffffffffffffff168152602001908152602001600020600201546114739190612bf9565b905060006003848154811061148b5761148a612b9b565b5b9060005260206000200160009054906101000a900473ffffffffffffffffffffffffffffffffffffffff1673ffffffffffffffffffffffffffffffffffffffff16836040516114d990612d00565b60006040518083038185875af1925050503d8060008114611516576040519150601f19603f3d011682016040523d82523d6000602084013e61151b565b606091505b505090508061155f576040517f08c379a0000000000000000000000000000000000000000000000000000000008152600401611556906133eb565b60405180910390fd5b60003373ffffffffffffffffffffffffffffffffffffffff168360405161158590612d00565b60006040518083038185875af1925050503d80600081146115c2576040519150601f19603f3d011682016040523d82523d6000602084013e6115c7565b606091505b505090508061160b576040517f08c379a00000000000000000000000000000000000000000000000000000000081526004016116029061347d565b60405180910390fd5b8284867f06467b91340a32c47d0bc27376788ab16a8dfb768224f1f3635089ec340ce8ac60405160405180910390a45050505050565b60026020528060005260406000206000915090508060000154908060010160009054906101000a900460ff16908060020154908060030154908060040154905085565b61168c612603565b60006001805461169b90612e8a565b80601f01602080910402602001604051908101604052809291908181526020018280546116c790612e8a565b80156117145780601f106116e957610100808354040283529160200191611714565b820191906000526020600020905b8154815290600101906020018083116116f757829003601f168201915b5050505050905082826001918261172c9291906134a8565b50600160405161173c91906135fb565b60405180910390208160405161175291906131a4565b60405180910390207f4fc970da176c91d38d02d09a0f3a888ac557a1dbf1ed5ed25b1e712e4e47038360405160405180910390a3505050565b611793612603565b61179b610f80565b34146117dc576040517f08c379a00000000000000000000000000000000000000000000000000000000081526004016117d39061365e565b60405180910390fd5b60005b600380549050811015611b99576000600260006003848154811061180657611805612b9b565b5b9060005260206000200160009054906101000a900473ffffffffffffffffffffffffffffffffffffffff1673ffffffffffffffffffffffffffffffffffffffff1673ffffffffffffffffffffffffffffffffffffffff168152602001908152602001600020600301541115611b8657600260006003838154811061188d5761188c612b9b565b5b9060005260206000200160009054906101000a900473ffffffffffffffffffffffffffffffffffffffff1673ffffffffffffffffffffffffffffffffffffffff1673ffffffffffffffffffffffffffffffffffffffff16815260200190815260200160002060010160009054906101000a900460ff1615611b85576000600260006003848154811061192257611921612b9b565b5b9060005260206000200160009054906101000a900473ffffffffffffffffffffffffffffffffffffffff1673ffffffffffffffffffffffffffffffffffffffff1673ffffffffffffffffffffffffffffffffffffffff168152602001908152602001600020600301549050600060026000600385815481106119a7576119a6612b9b565b5b9060005260206000200160009054906101000a900473ffffffffffffffffffffffffffffffffffffffff1673ffffffffffffffffffffffffffffffffffffffff1673ffffffffffffffffffffffffffffffffffffffff16815260200190815260200160002060030181905550600060038381548110611a2957611a28612b9b565b5b9060005260206000200160009054906101000a900473ffffffffffffffffffffffffffffffffffffffff1673ffffffffffffffffffffffffffffffffffffffff1682604051611a7790612d00565b60006040518083038185875af1925050503d8060008114611ab4576040519150601f19603f3d011682016040523d82523d6000602084013e611ab9565b606091505b5050905080611afd576040517f08c379a0000000000000000000000000000000000000000000000000000000008152600401611af4906136f0565b60405180910390fd5b426002600060038681548110611b1657611b15612b9b565b5b9060005260206000200160009054906101000a900473ffffffffffffffffffffffffffffffffffffffff1673ffffffffffffffffffffffffffffffffffffffff1673ffffffffffffffffffffffffffffffffffffffff1681526020019081526020016000206004018190555050505b5b8080611b9190612d81565b9150506117df565b5060005b600380549050811015611ddb576002600060038381548110611bc257611bc1612b9b565b5b9060005260206000200160009054906101000a900473ffffffffffffffffffffffffffffffffffffffff1673ffffffffffffffffffffffffffffffffffffffff1673ffffffffffffffffffffffffffffffffffffffff16815260200190815260200160002060010160009054906101000a900460ff1615611dc8576002600060038381548110611c5557611c54612b9b565b5b9060005260206000200160009054906101000a900473ffffffffffffffffffffffffffffffffffffffff1673ffffffffffffffffffffffffffffffffffffffff1673ffffffffffffffffffffffffffffffffffffffff168152602001908152602001600020600201546002600060038481548110611cd657611cd5612b9b565b5b9060005260206000200160009054906101000a900473ffffffffffffffffffffffffffffffffffffffff1673ffffffffffffffffffffffffffffffffffffffff1673ffffffffffffffffffffffffffffffffffffffff16815260200190815260200160002060030181905550426002600060038481548110611d5b57611d5a612b9b565b5b9060005260206000200160009054906101000a900473ffffffffffffffffffffffffffffffffffffffff1673ffffffffffffffffffffffffffffffffffffffff1673ffffffffffffffffffffffffffffffffffffffff168152602001908152602001600020600401819055505b8080611dd390612d81565b915050611b9d565b50426004819055506201518081611df29190612c2d565b6005819055504281347f952ac0ed9922ee4279de0f09733be93fc223133ccdd3897a6f68b3538f40314a60405160405180910390a450565b60045481565b611e38612603565b6040518060a001604052806003805490508152602001600115158152602001828152602001600081526020016000815250600260008473ffffffffffffffffffffffffffffffffffffffff1673ffffffffffffffffffffffffffffffffffffffff1681526020019081526020016000206000820151816000015560208201518160010160006101000a81548160ff0219169083151502179055506040820151816002015560608201518160030155608082015181600401559050506003829080600181540180825580915050600190039060005260206000200160009091909190916101000a81548173ffffffffffffffffffffffffffffffffffffffff021916908373ffffffffffffffffffffffffffffffffffffffff160217905550808273ffffffffffffffffffffffffffffffffffffffff166001600380549050611f809190612bf9565b7fbf8360766872acaeb00f0e4ac11f4a3b1f82c31bc71c469b66402847f7189c1260405160405180910390a45050565b600080600090505b6003805490508110156120ac5760038181548110611fd957611fd8612b9b565b5b9060005260206000200160009054906101000a900473ffffffffffffffffffffffffffffffffffffffff1673ffffffffffffffffffffffffffffffffffffffff168373ffffffffffffffffffffffffffffffffffffffff1614801561208a5750600260008473ffffffffffffffffffffffffffffffffffffffff1673ffffffffffffffffffffffffffffffffffffffff16815260200190815260200160002060010160009054906101000a900460ff165b156120995760019150506120ae565b80806120a490612d81565b915050611fb8565b505b919050565b6120bb612603565b600073ffffffffffffffffffffffffffffffffffffffff168173ffffffffffffffffffffffffffffffffffffffff160361212a576040517f08c379a000000000000000000000000000000000000000000000000000000000815260040161212190613782565b60405180910390fd5b61213381612681565b50565b6001805461214390612e8a565b80601f016020809104026020016040519081016040528092919081815260200182805461216f90612e8a565b80156121bc5780601f10612191576101008083540402835291602001916121bc565b820191906000526020600020905b81548152906001019060200180831161219f57829003601f168201915b505050505081565b6121cc612603565b600060026000600384815481106121e6576121e5612b9b565b5b9060005260206000200160009054906101000a900473ffffffffffffffffffffffffffffffffffffffff1673ffffffffffffffffffffffffffffffffffffffff1673ffffffffffffffffffffffffffffffffffffffff16815260200190815260200160002060010160006101000a81548160ff0219169083151502179055506003818154811061227957612278612b9b565b5b9060005260206000200160009054906101000a900473ffffffffffffffffffffffffffffffffffffffff1673ffffffffffffffffffffffffffffffffffffffff16817f43130e345f4bd4489e9ff7ce7c8b5cf98645fca8554b5ca73228f029bf8b720f60405160405180910390a350565b6122f333611fb0565b612332576040517f08c379a000000000000000000000000000000000000000000000000000000000815260040161232990613207565b60405180910390fd5b600061233d33610bc0565b90506000600260003373ffffffffffffffffffffffffffffffffffffffff1673ffffffffffffffffffffffffffffffffffffffff1681526020019081526020016000206040518060a0016040529081600082015481526020016001820160009054906101000a900460ff161515151581526020016002820154815260200160038201548152602001600482015481525050905080600260008573ffffffffffffffffffffffffffffffffffffffff1673ffffffffffffffffffffffffffffffffffffffff1681526020019081526020016000206000820151816000015560208201518160010160006101000a81548160ff02191690831515021790555060408201518160020155606082015181600301556080820151816004015590505082600383815481106124705761246f612b9b565b5b9060005260206000200160006101000a81548173ffffffffffffffffffffffffffffffffffffffff021916908373ffffffffffffffffffffffffffffffffffffffff1602179055506000600260003373ffffffffffffffffffffffffffffffffffffffff1673ffffffffffffffffffffffffffffffffffffffff16815260200190815260200160002060010160006101000a81548160ff0219169083151502179055506000600260003373ffffffffffffffffffffffffffffffffffffffff1673ffffffffffffffffffffffffffffffffffffffff168152602001908152602001600020600301819055506000600260003373ffffffffffffffffffffffffffffffffffffffff1673ffffffffffffffffffffffffffffffffffffffff168152602001908152602001600020600401819055508273ffffffffffffffffffffffffffffffffffffffff163373ffffffffffffffffffffffffffffffffffffffff16837f87151e8c2a48a9b52dd9a5e8c178634082d95a12de1cd36ff51cdd30714c0d2b60405160405180910390a4505050565b61260b612745565b73ffffffffffffffffffffffffffffffffffffffff16612629610c5f565b73ffffffffffffffffffffffffffffffffffffffff161461267f576040517f08c379a0000000000000000000000000000000000000000000000000000000008152600401612676906137ee565b60405180910390fd5b565b60008060009054906101000a900473ffffffffffffffffffffffffffffffffffffffff169050816000806101000a81548173ffffffffffffffffffffffffffffffffffffffff021916908373ffffffffffffffffffffffffffffffffffffffff1602179055508173ffffffffffffffffffffffffffffffffffffffff168173ffffffffffffffffffffffffffffffffffffffff167f8be0079c531659141344cd1fd0a4f28419497f9722a3daafe3b4186f6b6457e060405160405180910390a35050565b600033905090565b6000819050919050565b6127608161274d565b82525050565b600060208201905061277b6000830184612757565b92915050565b600080fd5b600080fd5b6127948161274d565b811461279f57600080fd5b50565b6000813590506127b18161278b565b92915050565b6000602082840312156127cd576127cc612781565b5b60006127db848285016127a2565b91505092915050565b600073ffffffffffffffffffffffffffffffffffffffff82169050919050565b600061280f826127e4565b9050919050565b61281f81612804565b811461282a57600080fd5b50565b60008135905061283c81612816565b92915050565b60006020828403121561285857612857612781565b5b60006128668482850161282d565b91505092915050565b6000806040838503121561288657612885612781565b5b6000612894858286016127a2565b92505060206128a5858286016127a2565b9150509250929050565b60006128ba826127e4565b9050919050565b6128ca816128af565b82525050565b60006020820190506128e560008301846128c1565b92915050565b6128f481612804565b82525050565b600060208201905061290f60008301846128eb565b92915050565b60008115159050919050565b61292a81612915565b82525050565b600060a0820190506129456000830188612757565b6129526020830187612921565b61295f6040830186612757565b61296c6060830185612757565b6129796080830184612757565b9695505050505050565b600080fd5b600080fd5b600080fd5b60008083601f8401126129a8576129a7612983565b5b8235905067ffffffffffffffff8111156129c5576129c4612988565b5b6020830191508360018202830111156129e1576129e061298d565b5b9250929050565b600080602083850312156129ff576129fe612781565b5b600083013567ffffffffffffffff811115612a1d57612a1c612786565b5b612a2985828601612992565b92509250509250929050565b612a3e816128af565b8114612a4957600080fd5b50565b600081359050612a5b81612a35565b92915050565b60008060408385031215612a7857612a77612781565b5b6000612a8685828601612a4c565b9250506020612a97858286016127a2565b9150509250929050565b6000602082019050612ab66000830184612921565b92915050565b600081519050919050565b600082825260208201905092915050565b60005b83811015612af6578082015181840152602081019050612adb565b60008484015250505050565b6000601f19601f8301169050919050565b6000612b1e82612abc565b612b288185612ac7565b9350612b38818560208601612ad8565b612b4181612b02565b840191505092915050565b60006020820190508181036000830152612b668184612b13565b905092915050565b600060208284031215612b8457612b83612781565b5b6000612b9284828501612a4c565b91505092915050565b7f4e487b7100000000000000000000000000000000000000000000000000000000600052603260045260246000fd5b7f4e487b7100000000000000000000000000000000000000000000000000000000600052601160045260246000fd5b6000612c048261274d565b9150612c0f8361274d565b9250828203905081811115612c2757612c26612bca565b5b92915050565b6000612c388261274d565b9150612c438361274d565b9250828202612c518161274d565b91508282048414831517612c6857612c67612bca565b5b5092915050565b7f4e487b7100000000000000000000000000000000000000000000000000000000600052601260045260246000fd5b6000612ca98261274d565b9150612cb48361274d565b925082612cc457612cc3612c6f565b5b828204905092915050565b600081905092915050565b50565b6000612cea600083612ccf565b9150612cf582612cda565b600082019050919050565b6000612d0b82612cdd565b9150819050919050565b7f5061796d656e74206f66206475652062616c616e636573206661696c65642e00600082015250565b6000612d4b601f83612ac7565b9150612d5682612d15565b602082019050919050565b60006020820190508181036000830152612d7a81612d3e565b9050919050565b6000612d8c8261274d565b91507fffffffffffffffffffffffffffffffffffffffffffffffffffffffffffffffff8203612dbe57612dbd612bca565b5b600182019050919050565b7f5769746864726177616c206f6620756e7370656e742062616c616e636573206660008201527f61696c6564000000000000000000000000000000000000000000000000000000602082015250565b6000612e25602583612ac7565b9150612e3082612dc9565b604082019050919050565b60006020820190508181036000830152612e5481612e18565b9050919050565b7f4e487b7100000000000000000000000000000000000000000000000000000000600052602260045260246000fd5b60006002820490506001821680612ea257607f821691505b602082108103612eb557612eb4612e5b565b5b50919050565b7f4e487b7100000000000000000000000000000000000000000000000000000000600052604160045260246000fd5b60008190508160005260206000209050919050565b60006020601f8301049050919050565b600082821b905092915050565b600060088302612f4c7fffffffffffffffffffffffffffffffffffffffffffffffffffffffffffffffff82612f0f565b612f568683612f0f565b95508019841693508086168417925050509392505050565b6000819050919050565b6000612f93612f8e612f898461274d565b612f6e565b61274d565b9050919050565b6000819050919050565b612fad83612f78565b612fc1612fb982612f9a565b848454612f1c565b825550505050565b600090565b612fd6612fc9565b612fe1818484612fa4565b505050565b5b8181101561300557612ffa600082612fce565b600181019050612fe7565b5050565b601f82111561304a5761301b81612eea565b61302484612eff565b81016020851015613033578190505b61304761303f85612eff565b830182612fe6565b50505b505050565b600082821c905092915050565b600061306d6000198460080261304f565b1980831691505092915050565b6000613086838361305c565b9150826002028217905092915050565b61309f82612abc565b67ffffffffffffffff8111156130b8576130b7612ebb565b5b6130c28254612e8a565b6130cd828285613009565b600060209050601f83116001811461310057600084156130ee578287015190505b6130f8858261307a565b865550613160565b601f19841661310e86612eea565b60005b8281101561313657848901518255600182019150602085019450602081019050613111565b86831015613153578489015161314f601f89168261305c565b8355505b6001600288020188555050505b505050505050565b600081905092915050565b600061317e82612abc565b6131888185613168565b9350613198818560208601612ad8565b80840191505092915050565b60006131b08284613173565b915081905092915050565b7f596f7520617265206e6f7420616e2061637469766520656d706c6f7965652100600082015250565b60006131f1601f83612ac7565b91506131fc826131bb565b602082019050919050565b60006020820190508181036000830152613220816131e4565b9050919050565b7f4e6f2073616c61727920617661696c61626c6520746f20776974686472617721600082015250565b600061325d602083612ac7565b915061326882613227565b602082019050919050565b6000602082019050818103600083015261328c81613250565b9050919050565b7f5769746864726177616c20756e7375636365737366756c000000000000000000600082015250565b60006132c9601783612ac7565b91506132d482613293565b602082019050919050565b600060208201905081810360008301526132f8816132bc565b9050919050565b600061330a8261274d565b91506133158361274d565b925082820190508082111561332d5761332c612bca565b5b92915050565b7f456d706c6f796565206973206e6f74206163746976652e000000000000000000600082015250565b6000613369601783612ac7565b915061337482613333565b602082019050919050565b600060208201905081810360008301526133988161335c565b9050919050565b7f5061796d656e7420746f20656d706c6f796565206661696c6564000000000000600082015250565b60006133d5601a83612ac7565b91506133e08261339f565b602082019050919050565b60006020820190508181036000830152613404816133c8565b9050919050565b7f5769746864726177616c206f6620756e7370656e742073616c6172792066616960008201527f6c65640000000000000000000000000000000000000000000000000000000000602082015250565b6000613467602383612ac7565b91506134728261340b565b604082019050919050565b600060208201905081810360008301526134968161345a565b9050919050565b600082905092915050565b6134b2838361349d565b67ffffffffffffffff8111156134cb576134ca612ebb565b5b6134d58254612e8a565b6134e0828285613009565b6000601f83116001811461350f57600084156134fd578287013590505b613507858261307a565b86555061356f565b601f19841661351d86612eea565b60005b8281101561354557848901358255600182019150602085019450602081019050613520565b86831015613562578489013561355e601f89168261305c565b8355505b6001600288020188555050505b50505050505050565b6000815461358581612e8a565b61358f8186613168565b945060018216600081146135aa57600181146135bf576135f2565b60ff19831686528115158202860193506135f2565b6135c885612eea565b60005b838110156135ea578154818901526001820191506020810190506135cb565b838801955050505b50505092915050565b60006136078284613578565b915081905092915050565b7f57726f6e6720746f74616c2073616c617279206465706f736974656400000000600082015250565b6000613648601c83612ac7565b915061365382613612565b602082019050919050565b600060208201905081810360008301526136778161363b565b9050919050565b7f456e64206f66206d6f6e7468207061796d656e7420756e73756363657373667560008201527f6c00000000000000000000000000000000000000000000000000000000000000602082015250565b60006136da602183612ac7565b91506136e58261367e565b604082019050919050565b60006020820190508181036000830152613709816136cd565b9050919050565b7f4f776e61626c653a206e6577206f776e657220697320746865207a65726f206160008201527f6464726573730000000000000000000000000000000000000000000000000000602082015250565b600061376c602683612ac7565b915061377782613710565b604082019050919050565b6000602082019050818103600083015261379b8161375f565b9050919050565b7f4f776e61626c653a2063616c6c6572206973206e6f7420746865206f776e6572600082015250565b60006137d8602083612ac7565b91506137e3826137a2565b602082019050919050565b60006020820190508181036000830152613807816137cb565b905091905056fea2646970667358221220bb87e2cee328ee5d417c842742df52fb795461f8ce6bba0c497bf4a488ea3c5264736f6c63430008130033a264697066735822122020ce8a5a3297fbc641e4973c0df456d673aef2e91f00cf1b6940c5336946c40964736f6c63430008130033",
  "linkReferences": {},
  "deployedLinkReferences": {}
}